:100000000C94B3000C94DB000C94DB000C940F10E8
:100010000C940F100C940F100C94DB000C94DB006C
:100020000C94DB000C94DB000C94DB000C94DB00E4
:100030000C94DB000C94DB000C94DB000C94DB00D4
:100040000C94B1180C94DB000C94DB000C94DB00D6
:100050000C94DB000C94DB000C94DB000C94DB00B4
:100060000C94F6130C94DB002F0536052F052F0595
:100070002F052F052F052F052F052F052F052F05E0
:1000800007634236B79BD8A71A39685618AEBAAB81
:10009000558C1D3CB7CC5763BD6DEDFD753EF61715
:1000A0007231BF000000803F08000000BE9224496A
:1000B000123EABAAAA2ABECDCCCC4C3E000000809A
:1000C000BEABAAAAAA3E00000000BF000000803F0D
:1000D0000000000000084178D3BB4387D1133D19CD
:1000E0000E3CC3BD4282AD2B3E68EC8276BED98FFA
:1000F000E1A93E4C80EFFFBE01C4FF7F3F0000003E
:100100000000200030004F46003A002F002F000072
:1001100000000800020100000304070000000000C6
:1001200000000001020408102040800102040810B1
:10013000200102040810200404040404040404023E
:10014000020202020203030303030300000000256E
:100150000028002B0000000000240027002A0000D7
:100160005B031413E81711241FBECFEFD8E0DEBFE6
:10017000CDBF11E0A0E0B1E0E4E8F1E402C00590F9
:100180000D92A837B107D9F723E0A8E7B1E001C085
:100190001D92A23EB207E1F711E0C6E6D1E004C02D
:1001A0002297FE010E940F1FC036D107C9F70E9497
:1001B0004E1A0C94C0200C94000040910B015091F9
:1001C0000C0125E038E0429FC001439F900D529FF3
:1001D000900D1124875E994C90930C0180930B0134
:1001E000890F08951F93182F0E94DD00282F219F4B
:1001F000212D1124822F1F910895AF92BF92CF928B
:10020000DF92EF92FF920F931F93CF93DF937C01C6
:10021000FC01828193810E946509C82ED12CF3E0F4
:100220008F9F5001112400E010E0C0E0D0E0F70102
:10023000828193810E94680990E09E012C0D3D1DF2
:1002400082179307B0F0C8018A0D9B1DE0918101D0
:10025000F0918201E80FF91F8091780180838091ED
:100260007901818380917A01828321960D5F1F4FEE
:10027000DECFDF91CF911F910F91FF90EF90DF9034
:10028000CF90BF90AF9008954F925F926F927F9200
:100290008F929F92AF92BF92CF92DF92EF92FF9296
:1002A0000F931F93CF93DF9300D01F92CDB7DEB78C
:1002B0008C010E94FB18F801C480D580E680F7808D
:1002C0006C197D098E099F096233710581059105BD
:1002D00008F49BC00E94FB18F80164837583868331
:1002E0009783208582819381222309F44CC00E9448
:1002F0006509782EA82EB12CE12CF12C24E1622E78
:1003000055245A946701CA0CDB1CF8018281938141
:100310000E94680990E08C159D0508F476C09091C4
:100320000A0180917B0121E0280F20937B01272D7A
:100330002E0D269D800D112489835A829B838090E7
:10034000810190908201F801828193810E94680965
:10035000482EF801828193810E946509282F30E0A0
:10036000240D311D2C193D09B901660F771F620F4D
:10037000731F680D791DCE0101960E94FB17FFEFD8
:10038000EF1AFF0ABFCF0E946809582EA82EB12C81
:10039000F3E08F9F40011124C12CD12CE12CF12CD2
:1003A00084E1782E66246A94F801828193810E9408
:1003B0006509282F30E0A5014E195F094217530740
:1003C00020F190910A0180917B0121E0280F209378
:1003D0007B01252D2E19279D800D112489836A828A
:1003E0009B83C601880D991D6091810170918201E6
:1003F000680F791FCE0101960E94FB178FEFE81A54
:10040000F80AE3E0CE1AD108CFCF0F900F900F90EB
:10041000DF91CF911F910F91FF90EF90DF90CF90E0
:10042000BF90AF909F908F907F906F905F904F9014
:10043000089590938201809381010895AFE7B1E020
:100440008C9180938001EEE7F1E080818C93ADE7A1
:10045000B1E08C918083ECE7F1E080818C93608344
:100460000895ECE7F1E070E0819190E0861B970B36
:1004700097FF04C0880F991F880F991F883230F0AA
:1004800081E0E138F80781F780E0089581E0089580
:100490008F929F92AF92BF92CF92DF92EF92FF9294
:1004A0000F931F93CF93DF9300D000D000D0CDB730
:1004B000DEB78C010E94FB186B017C01F80184817E
:1004C0009581A681B781C81AD90AEA0AFB0A8085F4
:1004D00062E30E94981E282F30E0A0E6BAEE0E9448
:1004E000131FC616D706E806F90608F469C00E946D
:1004F000FB18F801648375838683978388E20E94E2
:10050000F200D82E8DE20E94F200E82E83E20E94D3
:10051000F200F82E8EE10E94F2008D0D87598E0DAB
:100520008F0DF80180870E94DD00F82E682FC8012A
:100530000E9431028111F7CF6F2DC8010E941E0267
:10054000F0900A010E94DD0089838FEF8A83FB828D
:10055000BE016C5F7F4FCE0101960E94FB17F80130
:10056000828193810E946509A82EB12CF3E08F9FB0
:1005700040011124C12CD12CE12CF12CF8018281F5
:1005800093810E94680990E097012A0D3B1D821714
:100590009307B0F0C601880D991DE0918101F0919B
:1005A0008201E80FF91F8C8180838D8181838E8188
:1005B00082838FEFE81AF80A93E0C90ED11CDECFD0
:1005C00026960FB6F894DEBF0FBECDBFDF91CF9158
:1005D0001F910F91FF90EF90DF90CF90BF90AF9061
:1005E0009F908F900895FC01808180937801818194
:1005F00080937901828180937A0108950F931F93EC
:10060000CF93DF9300D01F92CDB7DEB78C010E944D
:100610005D0983309105D1F0ACF18430910501F191
:10062000099781F519828FEF8A838B83CE0101961A
:100630000E94F30284E090E00E945D1AFC011383A3
:1006400002838EE191E0918380832CC089E090E069
:100650000E945D1AFC011383028388E191E01BC0B4
:1006600089E090E00E945D1AFC011383028388E117
:1006700091E091838083148215821682178281E033
:10068000808710C089E090E00E945D1AFC0113830E
:10069000028382E191E09183808314821582168225
:1006A00017821086CF010F900F900F90DF91CF919E
:1006B0001F910F910895109278018FEF8093790127
:1006C00080937A010895EF92FF920F931F93FB019D
:1006D000E080F18002811381248135814681578138
:1006E0006085718582850E943C151F910F91FF9056
:1006F000EF9008950B9608952BE0FB01DC0101902B
:100700000D922A95E1F708950F931F93CF93DF93EE
:10071000EC010E94FB18088D198D2A8D3B8D601B02
:10072000710B820B930B0E891F8920E030E00617B6
:10073000170728073907D0F40E94FB18688F798FB4
:100740008A8F9B8FCE010E94CB158BE0FE01DE01CC
:100750001B9601900D928A95E1F78D858D3010F0F2
:100760008C5003C0811102C08CE08D87DF91CF9146
:100770001F910F910895CF93DF93EC011F8A1E8A7A
:10078000188E198E1A8E1B8E84E00E94C91562E3A2
:1007900070E080E090E00E942A19CE010E9484035C
:1007A0008D819E818537984089F48CE08A831982F7
:1007B000188281E08B838C8380EE97E09E838D830B
:1007C000BE01CE01DF91CF910C946303DF91CF91F5
:1007D0000895FC01778B668B0895FC01828190E07F
:1007E0000895FC01828190E08053984F08950F9303
:1007F0001F93CF93DF93CDB7DEB72B970FB6F89447
:10080000DEBF0FBECDBF8C01FC0166817781CE01BA
:1008100001960E947C038E81805DF80182832B9675
:100820000FB6F894DEBF0FBECDBFDF91CF911F9101
:100830000F9108950F931F93CF93DF93CDB7DEB73A
:100840002B970FB6F894DEBF0FBECDBF8C01FC0115
:1008500066817781CE0101960E947C038D81F8012B
:1008600082832B960FB6F894DEBF0FBECDBFDF910B
:10087000CF911F910F9108950F931F93CF93DF9303
:10088000CDB7DEB72B970FB6F894DEBF0FBECDBF46
:100890008C01FC0162857385CE0101960E947C0368
:1008A0008C81F80182832B960FB6F894DEBF0FBEC1
:1008B000CDBFDF91CF911F910F9108950F931F939B
:1008C000CF93DF93CDB7DEB72B970FB6F894DEBF8B
:1008D0000FBECDBF8C01FC0166817781CE010196F0
:1008E0000E947C038B81F80182832B960FB6F894CB
:1008F000DEBF0FBECDBFDF91CF911F910F91089545
:100900000F931F93CF93DF93CDB7DEB72B970FB61F
:10091000F894DEBF0FBECDBF8C01FC0166817781EC
:10092000CE0101960E947C038A81F80182832B9676
:100930000FB6F894DEBF0FBECDBFDF91CF911F91F0
:100940000F9108950F931F93CF93DF93CDB7DEB729
:100950002B970FB6F894DEBF0FBECDBF8C01FC0104
:1009600082818F5F828366817781CE0101960E94AA
:100970007C03F801828190E08053984F9F838E839F
:100980001982BE016F5F7F4F868197810E9463034A
:100990002B960FB6F894DEBF0FBECDBFDF91CF917F
:1009A0001F910F9108950F931F93CF93DF93CDB7AE
:1009B000DEB72B970FB6F894DEBF0FBECDBF8C010C
:1009C000FC0182818F5F8D3010F081E0F80182831D
:1009D000F80166817781CE0101960E947C03F801BF
:1009E00082818D831982BE016F5F7F4F86819781DF
:1009F0000E9463032B960FB6F894DEBF0FBECDBFE7
:100A0000DF91CF911F910F9108950F931F93CF9373
:100A1000DF93CDB7DEB72B970FB6F894DEBF0FBECE
:100A2000CDBF8C01DC0112968C9112978F5F1296CC
:100A30008C93129716968D919C911797DC01ED91EE
:100A4000FC910480F581E02D099501978C3091058A
:100A500008F04BC08C5C9F4FFC010C940D1FD8011B
:100A600012968C91803208F440C033C0F801808522
:100A70009185DC01ED91FC910480F581E02D0995D3
:100A800083709927892B49F5F80180859185DC01D0
:100A9000ED91FC910480F581E02D099564E670E00C
:100AA0000E94A41E892B81F4F80180859185DC01C8
:100AB000ED91FC910480F581E02D099560E971E0EC
:100AC0000E94A41E892B49F4D80112968C918E3174
:100AD00060F081E0F801828308C0F80182818D31E5
:100AE00020F081E0D80112968C93F801628573851D
:100AF000CE0101960E947C03D80112968C91129728
:100B00008C831982BE016F5F7F4F1A968D919C91E5
:100B10001B970E9463032B960FB6F894DEBF0FBE9F
:100B2000CDBFDF91CF911F910F9108950F931F9328
:100B3000CF93DF93CDB7DEB72B970FB6F894DEBF18
:100B40000FBECDBF8C01FC0182818F5F883110F414
:100B5000828302C0F8011282F80166817781CE019A
:100B600001960E947C03F80182818B831982BE0169
:100B70006F5F7F4F868197810E9463032B960FB62C
:100B8000F894DEBF0FBECDBFDF91CF911F910F91C3
:100B900008950F931F93CF93DF93CDB7DEB72B97B5
:100BA0000FB6F894DEBF0FBECDBF8C01FC01828171
:100BB0008F5F8C3310F081E0F8018283F801668149
:100BC0007781CE0101960E947C03F80182818A839D
:100BD0001982BE016F5F7F4F868197810E946303F8
:100BE0002B960FB6F894DEBF0FBECDBFDF91CF912D
:100BF0001F910F9108957F928F929F92AF92BF9213
:100C0000CF92DF92EF92FF920F931F93CF93DF93D8
:100C1000CDB7DEB72C970FB6F894DEBF0FBECDBFB1
:100C20008C017A01FC011486158616861786108AB7
:100C3000118A128A138A148A168A71836083508FEC
:100C4000478B258B61E0822F2C870E94DE1960E0A4
:100C50002C85822F0E94171A88E090E00E945D1A6E
:100C60005C01B701CE0101960E947C038E81805DFC
:100C7000F501148294E09583828386E0838384E285
:100C800091E091838083F782E68288E090E00E9481
:100C90005D1A4C01B701CE0101960E947C038D8143
:100CA000F401148292E0792E7582828383E083833B
:100CB0008EE291E091838083F782E6828CE090E07F
:100CC0000E945D1A6C01B701CE0101960E947C035F
:100CD0008C81F601148275828283138288E391E00D
:100CE0009183808397828682B186A086F386E2868E
:100CF000F801D382C28295828482B782A68288E07C
:100D000090E00E945D1A6C01B701CE0101960E942D
:100D10007C038B81F6011482758282838BE083834E
:100D200082E491E091838083F782E682F801D186A4
:100D3000C08688E090E00E945D1A6C01B701CE0188
:100D400001960E947C038A81F60114827582828357
:100D50008EE083838CE491E091838083F782E68246
:100D6000F801D386C28620E042E060E18081918173
:100D70000E945A11F801808191810E943211F8017C
:100D8000808191812C960FB6F894DEBF0FBECDBF47
:100D9000DF91CF911F910F91FF90EF90DF90CF9057
:100DA000BF90AF909F908F907F900C944B11AF921B
:100DB000BF92CF92DF92EF92FF920F931F93CF9348
:100DC000DF938C01EC01C60FD11DC60FD11DCA8067
:100DD000DB80D601ED91FC910480F581E02DC60108
:100DE00009957C01F60144816381D8018D919C9124
:100DF0000E943911F601658170E061507109882700
:100E000077FD8095982F0E94341C9B01AC0160E017
:100E100070E080E291E40E94231D0E94061C6B0199
:100E2000E114F10419F4F1E0CF1AD1082AE0A22E5E
:100E3000B12CEC14FD0468F464E071E0D8018D91EC
:100E40009C910E949F1AC601B5010E94A41E6B01CD
:100E5000F0CF8A819B81DC01ED91FC910480F581CA
:100E6000E02D09954AE050E0BC01F80180819181B4
:100E7000DF91CF911F910F91FF90EF90DF90CF9076
:100E8000BF90AF900C942A1BCF93DF93EC016C853D
:100E90000E94D7068C858F5F853010F48C8701C047
:100EA0001C86DF91CF9108951F93CF93DF93EC01C0
:100EB000888199810E94521161E08D890E94171AE0
:100EC00040E062E0888199810E9439116DE071E013
:100ED000888199810E949F1A40E065E0888199810C
:100EE0000E9439116BE071E0888199810E949F1AFC
:100EF00040E06DE0888199810E94391169E071E0DC
:100F0000888199810E949F1A41E060E088819981DF
:100F10000E94391166E071E0888199810E949F1AD0
:100F200010E0612FCE010E94D7061F5F1530C9F770
:100F3000DF91CF911F910895FF920F931F93CF934D
:100F4000DF938C01FC01E60FF11DE60FF11DC2815C
:100F5000D3814C816B81FC01808191810E94391188
:100F6000F12C8D81F81648F462E071E0F80180817F
:100F700091810E949F1AF394F4CFDF91CF911F913A
:100F80000F91FF900895FF920F931F93CF93DF93DC
:100F9000EC010E94FB1809891A892B893C89601B86
:100FA000710B820B930B693E73408105910580F4B0
:100FB0000E94FB180D851E852F853889601B710BDB
:100FC000820B930B693E734081059105F0F120C0BF
:100FD0000E94FB18698B7A8B8B8B9C8B8E01F12C7A
:100FE0008C85F81671F0F80182819381DC01ED9116
:100FF000FC910280F381E02D09956F2DCE010E94B6
:10100000D706F3940E5F1F4FB5E0FB12E9CFD0CFA8
:101010000E94FB186D877E878F87988B8E8991E061
:1010200089278E8B6C85882341F0CE01DF91CF918B
:101030001F910F91FF900C949C07CE01DF91CF91EF
:101040001F910F91FF900C94D706DF91CF911F91C4
:101050000F91FF900895FC0130812181832F90E052
:10106000231748F46817790781F030E081E02617EC
:10107000370721F40BC06817790710F480E0089552
:10108000822F90E086179707C8F381E00895909328
:101090008401809383010895FC01118210821382E0
:1010A000128215821482168217821386128681E0BC
:1010B00090E095878487608741870895FC011182BD
:1010C000108213821282168217821386128681E0A2
:1010D00090E09587848760874187358324830895CE
:1010E000FC011382128215821482168217821386E3
:1010F000128681E090E095878487608741873183FD
:10110000208308950F931F93FC0115821482168289
:1011100017821386128681E090E095878487608726
:10112000418731832083138302831F910F91089598
:101130000F93FC0111821082138212821582148295
:101140001386128681E090E09587848760874187C7
:10115000268307830F910895CF93DF93EC018A854F
:101160009B850E945F1A1B861A868885A82FB0E08F
:10117000409183015091840193E0899F400D511D5E
:10118000112420E030E080E090E0698570E0FC010F
:10119000EA0FFB1F6E177F0750F0FA01E20FF31FF3
:1011A00010821182128201962D5F3F4FEECFDF91A8
:1011B000CF910895CF93DF93EC010E94FE029B87AD
:1011C0008A87DF91CF910895CF92DF92EF92FF92BD
:1011D0000F931F93CF93DF93EC018B01888199814B
:1011E000009739F0FB01618170E00E942B08D82E36
:1011F00002C0DD24D3948A819B81009731F0F801ED
:10120000618170E00E942B08D82AEC80FD80E114F7
:10121000F104E9F0F801C2806C2D70E0C7010E9472
:101220002B08D82EF70180818C1106C081E0F801CF
:101230009181913258F409C0F70181818C1107C066
:1012400081E0F8019181913208F080E0D8229E81FE
:10125000992361F08F81882349F0F801238192134B
:1012600004C0DD24D39494818913D12C8E858823E6
:1012700031F0D11009C0CE010E94AC0805C0DD20BC
:1012800019F0CE010E94DA08DE86DF91CF911F911E
:101290000F91FF90EF90DF90CF900895DC011A96A8
:1012A0008D919C911B97DC01ED91FC910190F08157
:1012B000E02D0994FC0186850895FC0184859585BF
:1012C0000895FC01758764870895FC018085089561
:1012D000FC018185089580E991E00895209A0895A0
:1012E0007F928F929F92AF92BF92CF92DF92EF92B6
:1012F000FF920F931F93CF93DF93809197018111FA
:1013000045C010928901109288018FEF80938C0163
:1013100080938D0180938E0180938F018093900143
:101320008093910181E08093920110929401109238
:10133000930110928B0110928A018091CC039091BD
:10134000CD03892B31F486E891E09093CD0380930F
:10135000CC03E091CA03F091CB03309721F086E8EB
:1013600091E09583848386E891E09093CB0380930A
:10137000CA03109296011092950186E591E0909330
:1013800087018093860181E08093970120E030E01F
:101390004CE450E067ED71E086E891E00E94AD1703
:1013A00080E090E0FC01E952FE4F1082118212822F
:1013B0000396843E9105B1F76091CE038EEC93E0E5
:1013C0000E94E51687ED91E00E94470887ED91E0C5
:1013D0000E9419028FE090E00E945D1AEC0141E04A
:1013E00060E00E944C08D093A401C093A30182E066
:1013F00090E00E945D1AEC018CE0F82EF882EE2459
:10140000E394E9828FE090E00E945D1A8C019E01D6
:1014100043E063E00E945E081093A6010093A501DB
:1014200082E090E00E945D1AEC01E882F9828FE090
:1014300090E00E945D1A8C019E0144E063E00E94EE
:101440005E081093A8010093A70182E090E00E943B
:101450005D1AEC01F882E9828FE090E00E945D1A4B
:101460008C019E0146E065E00E945E081093AA018F
:101470000093A9018FE090E00E945D1AEC0102E068
:1014800024E14FE06CE00E949808D093AC01C09337
:10149000AB0163E070E0CE010E94610982E090E060
:1014A0000E945D1AEC01E88292E0E92EE9828FE069
:1014B00090E00E945D1A8C019E014BE06AE00E9460
:1014C0005E081093AE010093AD0182E090E00E94AF
:1014D0005D1AEC01E88223E0D22ED9828FE090E001
:1014E0000E945D1A8C019E0149E067E00E945E083F
:1014F0001093B0010093AF0182E090E00E945D1A6A
:10150000EC01D88234E0E32EE9828FE090E00E9483
:101510005D1A8C019E0143E160E10E945E08109318
:10152000B2010093B10182E090E00E945D1AEC01EB
:10153000E88245E0E42EE9828FE090E00E945D1AA7
:101540008C019E0146E164E10E945E081093B401A3
:101550000093B30182E090E00E945D1AEC01E88202
:1015600056E0E52EE9828FE090E00E945D1A8C0142
:101570009E014EE16CE10E945E081093B60100935B
:10158000B50182E090E00E945D1AEC01E88267E01C
:10159000B62EB9828FE090E00E945D1A8C019E0108
:1015A0004CE16AE10E945E081093B8010093B70114
:1015B00082E090E00E945D1AEC01B88278E0772E1C
:1015C00079828FE090E00E945D1A8C019E0148E1D3
:1015D00067E10E945E081093BA010093B9018FE0A1
:1015E00090E00E945D1AEC0102E024E142E26FE12A
:1015F0000E949808D093BC01C093BB0164E070E0E6
:10160000CE010E94610982E090E00E945D1AEC0127
:101610007882E9E0EE2EE9828FE090E00E945D1A88
:101620008C019E0145E263E20E945E081093BE01B8
:101630000093BD0182E090E00E945D1AEC01E88217
:10164000FAE0EF2EE9828FE090E00E945D1A8C01B3
:101650009E014EE26CE20E945E081093C00100936E
:10166000BF0182E090E00E945D1AEC01E882ABE0ED
:10167000EA2EE9828FE090E00E945D1A8C019E01C3
:101680004BE269E20E945E081093C2010093C1011F
:101690008FE090E00E945D1AEC0102E024E148E254
:1016A00066E20E949808D093C401C093C30163E02E
:1016B00070E0CE010E94610982E090E00E945D1A14
:1016C000EC01E882F9828FE090E00E945D1A8C01C3
:1016D0009E0141E36FE20E945E081093C6010093F1
:1016E000C50182E090E00E945D1AEC01D882B0E270
:1016F000EB2EE9828FE090E00E945D1A8C019E0142
:1017000042E362E30E9470081093C8010093C7018E
:1017100082E090E00E945D1AEC0111E2C12EC882C5
:1017200009E3A02EA9828FE090E00E945D1A8C014F
:101730009E0146E364E30E9470081093CA0100937F
:10174000C90182E090E00E945D1AEC0182E1888389
:1017500086E1898382E090E00E945D1A8C0186E236
:10176000F80180838AE281838FE090E00E945D1A15
:101770004C019E014DE36AE30E9482089092CC01E5
:101780008092CB0182E090E00E945D1AEC017882A9
:10179000F98282E090E00E945D1A8C0180E3F801FA
:1017A000808384E381838FE090E00E945D1A4C0186
:1017B0009E0149E367E30E9482089092CE018092E5
:1017C000CD0182E090E00E945D1AEC01D882B982DE
:1017D00082E090E00E945D1A8C0185E3F80180832D
:1017E000A1828FE090E00E945D1A5C019E0144E4BA
:1017F00062E40E948208B092D001A092CF0182E000
:1018000090E00E945D1AEC0187E188838BE1898377
:1018100082E090E00E945D1A8C01FC01C08285E2AA
:1018200081838FE090E00E945D1A6C019E0144E488
:101830006EE30E948208D092D201C092D10182E070
:1018400090E00E945D1AEC018CE18883E9828FE0D0
:1018500090E00E945D1A8C019E014BE469E40E94B5
:1018600070081093D4010093D30182E090E00E94AD
:101870005D1AEC018DE0888381E1898382E090E04C
:101880000E945D1A8C018BE2F80180838FE28183D4
:101890008FE090E00E945D1A7C019E0148E465E4BF
:1018A0000E948208F092D601E092D50180E093E098
:1018B0000E94D8128CE190E00E945D1AEC010E9417
:1018C000BB03D093A201C093A10168EE73E0CE01E7
:1018D0000E94E90388E190E00E945D1A5C0182E0C9
:1018E000C82E93E0E92E04E025E046E067E0C5015C
:1018F0000E94151289E190E00E945D1AEC0140916E
:10190000A1015091A20121E1B5010E94FB05D093F4
:10191000A001C0939F01CE010E94540780919F01B6
:101920009091A0010E94440780919F019091A00195
:101930000E94440780E00E94981990930C018093C4
:101940000B0181E00E949819BC01882777FD8095E2
:10195000982F0E94301BC7EDD1E0E12CF12CDD2443
:10196000DA941882870109521E4FF8011182D2823F
:101970006091CE038EEC93E00E94E5161882F80188
:10198000118212826AE070E080E090E00E942A19E1
:10199000F3E0EF0EF11C239684EEE816F10409F74C
:1019A000DF91CF911F910F91FF90EF90DF90CF903B
:1019B000BF90AF909F908F907F900895CF93DF93CB
:1019C0000E94AA2020910B0130910C01260F371F95
:1019D00030930C0120930B018091A1019091A20101
:1019E0000E948403C3EAD1E08091A1019091A201F9
:1019F0000E947A03BC01899199910E94E40881E0D8
:101A0000C73DD80789F7C3EAD1E0888199810E9450
:101A10005A09882321F0888199810E944E092296D3
:101A200081E0C73DD80789F76091CE038EEC93E043
:101A30000E94E51680919F019091A001DF91CF91C6
:101A40000C94C3078F929F92AF92BF92CF92DF9276
:101A5000EF92FF920F931F93CF93DF93EC01E881F6
:101A6000F98195B1916085B18E7F85B938852D81D9
:101A7000D32ED21ADD82AD84AA81BB812B859A84B4
:101A80008C84EC80FE807F8119850990D881C02DDF
:101A90000981002331F0402F0D2D400F08F44FEF46
:101AA00001C040E0042F029F012D1124C0E04C2F03
:101AB0005C2F6C2F002CEA01CC2E4C2D5D2F95B99C
:101AC00000C007FF85B960814427889400C000C02A
:101AD000002C85B961116E0D00C0002C95B900C0B5
:101AE00006FF85B908F46FEF889400C000C000C0FD
:101AF00085B990FC460F00C0002C95B900C005FFC9
:101B000085B94795889491FC460F00C000C0002C11
:101B100085B94795889400C0002C95B900C004FF92
:101B200085B992FC460F4795889400C000C0002CF0
:101B300085B993FC460F00C0002C95B900C003FF87
:101B400085B94795889494FC460F00C000C0002CCE
:101B500085B94795889400C0002C95B900C002FF54
:101B600085B995FC460F4795889400C000C0002CAD
:101B700085B996FC460F00C0002C95B900C001FF46
:101B800085B94795889497FC460F00C000C0002C8B
:101B900085B94795889400C0002C95B900C000FF16
:101BA00085B9E194E70E00C000C000C0002C85B9E3
:101BB000042F00C000C095B900C007FF85B962813D
:101BC0004427889400C000C0002C85B961116F0DB6
:101BD00000C0002C95B900C006FF85B908F46FEF6E
:101BE000889400C000C000C085B980FC460F00C0CA
:101BF000002C95B900C005FF85B94795889481FCF4
:101C0000460F00C000C0002C85B94795889400C0DD
:101C1000002C95B900C004FF85B982FC460F47959A
:101C2000889400C000C0002C85B983FC460F00C01A
:101C3000002C95B900C003FF85B94795889484FCB2
:101C4000460F00C000C0002C85B94795889400C09D
:101C5000002C95B900C002FF85B985FC460F479559
:101C6000889400C000C0002C85B986FC460F00C0D7
:101C7000002C95B900C001FF85B94795889487FC71
:101C8000460F00C000C0002C85B94795889400C05D
:101C9000002C95B900C000FF85B9EA0DF11D8894AC
:101CA000042F00C000C0002C85B9F194F10E00C0D3
:101CB000002C95B900C007FF85B96181442788943D
:101CC00000C000C0002C85B961116D0D00C0002C52
:101CD00095B900C006FF85B908F46FEF889400C07D
:101CE00000C000C085B920FD460F00C0002C95B98A
:101CF00000C005FF85B94795889421FD460F00C0B7
:101D000000C0002C85B94795889400C0002C95B977
:101D100000C004FF85B922FD460F4795889400C096
:101D200000C0002C85B923FD460F00C0002C95B9DA
:101D300000C003FF85B94795889424FD460F00C075
:101D400000C0002C85B94795889400C0002C95B937
:101D500000C002FF85B925FD460F4795889400C055
:101D600000C0002C85B926FD460F00C0002C95B997
:101D700000C001FF85B94795889427FD460F00C034
:101D800000C0002C85B94795889400C0002C95B9F7
:101D900000C000FF85B9D194D30E042F00C000C04D
:101DA00000C085B9119709F08ACEDF91CF911F91BC
:101DB0000F91FF90EF90DF90CF90BF90AF909F90EA
:101DC0008F900895FF920F931F93CF93DF93EC01B1
:101DD000809185018F5F982F97709093850180FD8A
:101DE00002C080E001C080E891FD8064947009F039
:101DF000806220E1F22EF80E20E030E000E011E0F9
:101E0000FE01E20FF31F6285662331F070E0C80126
:101E10000E94B81E6F5F01C060E067834F2D469F30
:101E2000412D11244483662311F0615067832F5F95
:101E30003F4F2330310521F7DF91CF911F910F9153
:101E4000FF900895AF92BF92CF92DF92EF92FF92F0
:101E50000F93CF93DF93CDB7DEB72E970FB6F894DD
:101E6000DEBF0FBECDBF6C015A01F901DC011C962B
:101E70008C917A8369835C834B8390819B8791816A
:101E80009C8792819D87813029F4CE0101960E9422
:101E9000E20E06C01A86198618861F821E821D82CF
:101EA00089819A818E0D911D9A838983002319F06F
:101EB00083E08E0D01C080E08E870E940719F60135
:101EC00027853089621B730B6A307105B0F3F89473
:101ED000CE0101960E94220D20EE31E0D5010E9434
:101EE000221F54E096958795779567955A95D1F777
:101EF00020E030E04AE9A49E212DB49E200D311D42
:101F00001124620F731F811D911D693EF3E07F074D
:101F100081059105A8F1DC01CB01885E9340A10900
:101F2000B10932E0B695A795979587953A95D1F77F
:101F300040E050E027E0829F412D929F400D511DCF
:101F400011242091BB0230E0280F391F240F351FC8
:101F50008091D6039091D703A091D803B091D90373
:101F6000432F5527840F951FA11DB11D8093D603C4
:101F70009093D703A093D803B093D9032093BB02C7
:101F800078940E940719D60150967C936E931F9700
:101F90002E960FB6F894DEBF0FBECDBFDF91CF9166
:101FA0000F91FF90EF90DF90CF90BF90AF9008958A
:101FB000EF92FF920F93E12CF12C00E00E94220F90
:101FC0000F91FF90EF900895EF92FF920F93E12C05
:101FD000F12C01E00E94220F0F91FF90EF900895E5
:101FE000EF92FF920F93CF93DF9300D01F92CDB764
:101FF000DEB7AB0119821A821B82E12CF12C00E0C2
:102000009E012F5F3F4FB9010E94220F0F900F904A
:102010000F90DF91CF910F91FF90EF9008951F9255
:102020000F920FB60F9211242F933F934F935F930C
:102030006F937F938F939F93AF93BF93EF93FF9390
:10204000E091FE02F091FF02309709F451C0868DB5
:10205000A685B785958581FF04C08C91892329F4D5
:1020600047C08C91892309F043C0A389B4899C910E
:102070008589809589238C93868997890197F1F7C3
:10208000208D318DA685B785758558E040E0C90162
:102090000197F1F7842F90E095958795482F6C91E3
:1020A000672309F04068515091F7868D81FD409576
:1020B0008091BD0290E001968F7399272091BC0218
:1020C000281749F0A091BD02B0E0A254BD4F4C9337
:1020D0008093BD0203C0868D8160868F828D938D33
:1020E0000197F1F7A389B4898C919589892B8C93F9
:1020F000FF91EF91BF91AF919F918F917F916F91E0
:102100005F914F913F912F910F900FBE0F901F90B5
:102110001895CF93DF93EC0160E08E810E94171A2F
:1021200081E090E00E94521961E08E810E94171AAE
:1021300081E090E00E94521960E08E810E94171A9F
:1021400084E690E0DF91CF910C945219CF92DF9208
:10215000EF92FF920F931F93CF93DF937C01C0E028
:10216000D0E0C62ED12C87010C0F1D1F61E0F801B5
:1021700087810E94DE19B6010C2E02C07595679505
:102180000A94E2F76170F80187810E94171A21967C
:10219000C430D10541F7C701DF91CF911F910F9155
:1021A000FF90EF90DF90CF900C948910CF92DF9248
:1021B000EF92FF920F931F93CF93DF937C01C0E0C8
:1021C000D0E0C62ED12C87010C0F1D1F61E0F80155
:1021D00087810E94DE19B6010C2E02C075956795A5
:1021E0000A94E2F76170F80187810E94171A21961C
:1021F000C830D10541F7C701DF91CF911F910F91F1
:10220000FF90EF90DF90CF900C9489101F93CF93A5
:10221000DF93EC01162F642F8C810E94171A8D8199
:102220008F3F19F060E00E94171A8F85612F84FF9D
:1022300006C0CE01DF91CF911F910C94D61070E0B3
:1022400084E0759567958A95E1F7CE010E94A61006
:10225000612FCE01DF91CF911F910C94A61040E029
:102260000C94061161E00E942F1180ED97E00C9410
:102270005219443008F043E0FC012389421710F062
:102280004FEF420FFC01E40FF11D2489260F206857
:10229000622F0C942F11FC0160896B7F608B68604A
:1022A0000C942F11FC016089262F2460208B6C6018
:1022B0000C942F11CF93DF93EC01423018F08F85EF
:1022C00088608F874B8B1C8A80E48D8B6E8B70E0CF
:1022D000605C7F4F6F8B222329F0413019F48F858A
:1022E00084608F8780E593EC0E94521960E08C81B6
:1022F0000E94171A60E08E810E94171A8D818F3F0D
:1023000019F060E00E94171A6F8564FD1DC063E03C
:10231000CE010E94A61084E991E10E94521963E067
:10232000CE010E94A61084E991E10E94521963E057
:10233000CE010E94A61086E990E00E94521962E048
:10234000CE010E94A61016C06062CE010E942F111D
:1023500084E991E10E9452196F856062CE010E946A
:102360002F1186E990E00E9452196F856062CE01BC
:102370000E942F116F856062CE010E942F1184E0B0
:10238000888BCE010E945211CE010E94321182E050
:10239000898B66E0CE01DF91CF910C942F116F9263
:1023A0007F928F92AF92CF92EF920F931F93CF9322
:1023B000DF93CDB7DEB73C01162F842F5D854E85A8
:1023C0003F859889F301848325830683E782C0864D
:1023D000A1868286538744873587968761E00E946D
:1023E000DE19F30185818F3F19F061E00E94DE194B
:1023F00061E0F30186810E94DE19112319F0F301D7
:10240000178603C080E1F301878720E041E060E1A7
:10241000C301DF91CF911F910F91EF90CF90AF90BB
:102420008F907F906F900C945A118F92AF92CF92B1
:10243000EF920F93DC0113961C921E921297E4E622
:10244000F1E0ED93FC931F921F921F921F928C2C30
:10245000AE2CC02EE22E042F2FEF462F61E00E94FB
:10246000CF110F900F900F900F900F91EF90CF9092
:10247000AF908F90089541E00E94061181E090E0B6
:1024800008958091300390E020913103821B9109DF
:1024900008952091310380913003281750F4E22FE2
:1024A000F0E0EE5CFC4F808190E02F5F20933103E1
:1024B00008958FEF9FEF0895E091310380913003ED
:1024C000E81730F4F0E0EE5CFC4F808190E0089576
:1024D0008FEF9FEF08950895CF92DF92EF92FF92D2
:1024E0000F931F93CF93DF937C01CB018A0120913F
:1024F0000C03222389F0EB016B01C40ED51ECC1511
:10250000DD0569F06991D701ED91FC910190F081B1
:10251000E02DC7010995F3CF642F0E94CD13C801A8
:10252000DF91CF911F910F91FF90EF90DF90CF90AF
:102530000895CF93DF931F92CDB7DEB769832091C3
:102540000C032223D1F020910D03203240F021E032
:1025500030E0FC013383228380E090E015C080915D
:102560000E03E82FF0E0E15FFC4F998190838F5FCD
:1025700080930E0380930D0305C061E0CE010196A8
:102580000E94CD1381E090E00F90DF91CF910895EC
:10259000FC011382128248EE53E060E070E0448355
:1025A0005583668377838CE691E0918380830895D9
:1025B000109231031092300310920E0310920D030B
:1025C0000C941813862F413208F040E262E373E066
:1025D0000E9436131092310380933003089521E056
:1025E0000C94E21281E080930C0360932F0310920D
:1025F0000E0310920D0308950C94F2120F93062F00
:1026000021E040910D036FE073E080912F030E9461
:102610007A1310920E0310920D0310920C030F9177
:10262000089561E00C94FE1280E093E00C94C812CF
:102630001092BF0381E08093BD031092BC0361E060
:1026400082E10E94171A61E083E10E94171AE9EB08
:10265000F0E080818E7F808380818D7F808388E41D
:102660008093B80085E48093BC000895413208F05F
:102670003FC09091BF039111FCCF91E09093BF03B5
:102680002093BD032FEF2093520310929703240F42
:10269000209396039093BE039091BE03880F892BDD
:1026A0008093BE038091BC03813041F41092BC033F
:1026B0008091BE038093BB0085EC01C085EE8093C2
:1026C000BC008091BF038130E1F3809197038417B0
:1026D00010F44091970328E933E0FB01D9018A2FD8
:1026E000821B841718F48D918193F9CF842F08955C
:1026F00080E008950F93413208F046C09091BF03E7
:102700009111FCCF92E09093BF030093BD039FEF24
:10271000909352031092970340939603FB0168E94C
:1027200073E0DB019A2F961B941718F491919D93F7
:10273000F9CF1092BE039091BE03880F892B80932E
:10274000BE038091BC03813041F41092BC038091A0
:10275000BE038093BB0085EC01C085EE8093BC0076
:10276000222321F08091BF038230E1F38091520354
:102770008F3F61F080915203803251F0809152037B
:10278000803341F483E007C081E005C080E003C0EE
:1027900082E001C084E00F910895613298F42091A5
:1027A000BF03243089F460937403FC0186E793E04F
:1027B000DC012A2F281B261718F421912D93F9CF1D
:1027C00080E0089581E0089582E0089585ED80938A
:1027D000BC008091BC0084FDFCCF1092BF03089523
:1027E00085EC8093BC001092BF0308951F920F9256
:1027F0000FB60F9211242F933F934F935F936F93D4
:102800007F938F939F93AF93BF93EF93FF938091A9
:10281000B900887F803609F49CC068F5883209F4D5
:102820005BC090F4803109F454C038F4882309F473
:10283000F5C0883009F44DC0F5C0883109F44CC0AA
:10284000803209F45DC0EEC0803409F468C048F4F9
:10285000803309F455C0883309F0E4C080935203F3
:10286000A8C0803509F44FC0883509F45DC08834AC
:1028700009F0D8C0D5C0883909F4C6C0A8F4883793
:1028800009F467C038F4883609F463C0803709F466
:1028900060C0C8C0883809F4B7C0803909F45FC087
:1028A000803809F0BFC05BC0803B09F485C038F4B4
:1028B000803A09F466C0883A09F47EC0B3C0803C0F
:1028C00009F4A6C0883C09F4A3C0883B09F489C078
:1028D000A9C08091BE0310C0909197038091960388
:1028E000981770F5E091970381E08E0F809397031E
:1028F000F0E0E856FC4F80818093BB0085EC85C0FA
:10290000809352038DC0E091970381E08E0F8093F6
:1029100097038091BB00F0E0E856FC4F80839091D4
:102920009703809196036DC0E091970381E08E0F2D
:10293000809397038091BB00F0E0E856FC4F8083C2
:102940008091BD0381116CC081E08093BC0384EA57
:1029500060C083E08093BF0310925303CFCF809178
:102960005303803208F050C0E091530381E08E0F92
:10297000809353038091BB00F0E0EC5AFC4F8083BE
:10298000BDCF80915303803230F4E0915303F0E0E7
:10299000EC5AFC4F10820E94E6136091530370E0E2
:1029A000E091B803F091B90384E593E009951092A2
:1029B00053030E94F01336C084E08093BF0310924B
:1029C000750310927403E091BA03F091BB0309956B
:1029D00080917403811105C081E08093740310928B
:1029E0007603E091750381E08E0F80937503F0E02C
:1029F000EA58FC4F80818093BB00909175038091D1
:102A00007403981708F47ACF85E88093BC000AC055
:102A100085EC8093BC001092BF0304C01092520357
:102A20000E94E613FF91EF91BF91AF919F918F911B
:102A30007F916F915F914F913F912F910F900FBEBA
:102A40000F901F901895DC01ED91FC910190F081A1
:102A5000E02D09946AE00E94981E20E1829F900D6B
:102A60001124892F0895982F92959F708F702AE0D6
:102A7000929F800D11240895CF92DF92EF92FF92E2
:102A80000F931F93CF93DF93CDB7DEB762970FB647
:102A9000F894DEBF0FBECDBFE886F9860A871B8794
:102AA0002C873D874E875F87688B798B8A8B8D85D6
:102AB0009E85813D27E0920724F0805D90E8C92E35
:102AC00002C08C56C12C9885998399859A839A85E2
:102AD0009B839F859C839B859D839C859E838F8301
:102AE00068E670E080E093E00E94FC1260E070E035
:102AF00080E093E00E9423158E010F5F1F4FD12CC1
:102B00007801F80180810E942A15F8018083F5E0A0
:102B1000DF1203C08E818C0D8E830F5F1F4FF70174
:102B2000608180E093E00E949912D394F7E0DF1275
:102B3000E7CF80E093E062960FB6F894DEBF0FBE59
:102B4000CDBFDF91CF911F910F91FF90EF90DF905C
:102B5000CF900C941113CF93DF93D82FC62F68E634
:102B600070E080E093E00E94FC126D2F80E093E023
:102B70000E9499126C2F80E093E00E94991280E0ED
:102B800093E0DF91CF910C941113682F8EE00C9499
:102B9000AB150C94C515BF92CF92DF92EF92FF92C6
:102BA0000F931F93CF93DF93CDB7DEB727970FB661
:102BB000F894DEBF0FBECDBF8C0168E670E080E008
:102BC00093E00E94FC1260E070E080E093E00E94DD
:102BD000231580E093E00E94111347E050E068E67F
:102BE00070E080E093E00E94EF12CE0101967C013C
:102BF000D12CB12C80E093E00E944912C82E95E0C0
:102C00008C2DD91209C08F710E9433158E83BC2C74
:102C1000BB1CBB24BB1C04C00E943315F70180837E
:102C2000D394FFEFEF1AFF0A87E0D812E3CF2F818A
:102C300091E0822FB91204C090E08053984F03C0F6
:102C400090E08459984F3981F80130833A8131837B
:102C50003B8132833D8133833E81348396838583F8
:102C60008C818783228727960FB6F894DEBF0FBE2C
:102C7000CDBFDF91CF911F910F91FF90EF90DF902B
:102C8000CF90BF9008958F929F92AF92BF92EF9294
:102C9000FF920F931F93CF93DF93EC011882198259
:102CA0001A824423B9F1E0E0F0E08B010A5F1F4F84
:102CB0007B0189E0E80EF11C842E912CA12CB12C13
:102CC000D801AE0FBF1F2C91D701AE0FBF1F6C9163
:102CD0002223E1F06623D1F030E040E050E02F5FA6
:102CE0003F4F4F4F5F4F70E080E090E06F5F7F4F4E
:102CF0008F4F9F4F0E94881E9B01AC01C501B401FC
:102D00000E94881EDE01AE0FBF1F8C933196E33008
:102D1000F105B1F6CE01DF91CF911F910F91FF9098
:102D2000EF90BF90AF909F908F900895CF92DF92D9
:102D3000EF92FF92CF93DF93EC018091C4039091C7
:102D4000C5039C012F5F3F4F3093C5032093C403FD
:102D5000861797079CF10E94FB189B01AC01E0913C
:102D6000C403F091C50388EE93E0E89FB001E99FAA
:102D7000700DF89F700D1124882777FD8095982F8E
:102D8000C090C003D090C103E090C203F090C30391
:102D90002C193D094E095F090E94CC1E3A832983F4
:102DA0001092C5031092C4030E94FB186093C003E5
:102DB0007093C1038093C2039093C303DF91CF91BB
:102DC000FF90EF90DF90CF900895AF92BF92CF9297
:102DD000DF92EF92FF920F931F93CF93DF9300D078
:102DE0001F92CDB7DEB78C01B62EF8018381948196
:102DF000A581B681892B8A2B8B2BD1F00E940719D4
:102E0000C090C603D090C703E090C803F090C903F8
:102E10006C197D098E099F09D8011396CD90DD901C
:102E2000ED90FC9016976C157D058E059F05E8F2D8
:102E30000E9407196093C6037093C7038093C80369
:102E40009093C903E090CC03F090CD03E114F1041A
:102E500051F1F701A484D80111968D919C9112979C
:102E60008436910508F41486D701ED91FC91C28057
:102E7000D3804B2DB701CE0101960E944316F70176
:102E800045855685628173819E012F5F3F4FC70143
:102E9000F6010995D7011C96AC921C971496ED90FB
:102EA000FC901597D3CF69E170E0C8010E94961697
:102EB0000F900F900F90DF91CF911F910F91FF9086
:102EC000EF90DF90CF90BF90AF900895CF92DF92B8
:102ED000EF92FF920F931F93CF93DF93EC01442364
:102EE000F1F06115710581F19B0140E050E060E473
:102EF00072E48FE090E00E94EE1ECB80DC80ED80DB
:102F0000FE8089019A010C151D052E053F0510F460
:102F1000970186010B831C832D833E8315C06115A9
:102F2000710571F09B0140E050E060E472E48FE0D5
:102F300090E00E94EE1E2B833C834D835E8304C091
:102F40001B821C821D821E82DF91CF911F910F91E7
:102F5000FF90EF90DF90CF900895CF92DF92EF92A5
:102F6000FF920F931F93CF93DF93EC016B018A01C4
:102F70007901121613061CF07A0100E010E0E881D6
:102F8000F9810480F581E02DCE010995C801880FF3
:102F9000991F800F911F8C0D9D1D9B838A83FE8638
:102FA000ED86E881F9810084F185E02DCE01099557
:102FB00041E0BC018EEC93E00E946617CE01DF91E8
:102FC000CF911F910F91FF90EF90DF90CF900895D8
:102FD0008FEF8093CE031092D0031092CF03089509
:102FE000FC012081222321F0269F212D09F02F5F53
:102FF000FC0120830895FF920F931F93CF93DF93DB
:1030000000D000D0CDB7DEB7FC018B014081F1804C
:103010005281842F8F71880F880F880F282F35E5F4
:10302000239F212D1124342F3074942F907247FD4B
:1030300025C031110EC0911106C0822F80958B835F
:103040002A8319823FC08BEA8B832B5A2A831982E9
:1030500039C091110DC0382F4AEA349F312D112407
:103060009BEA931B9B8325552A83198280E02AC003
:103070001B8280E0822F80958A8312C0311112C09A
:1030800091110BC01B82282F3AEA239F212D112476
:103090008BEA821B8A832B5A03C02B831A822095CA
:1030A000298310C0911106C085E5820F8B831A8297
:1030B0008BEA06C08BEA820F8B831A8280E085E55B
:1030C000821B89832FEFF21601F16F2DCE0103963B
:1030D0005C830E94F0176F2DCE0102960E94F017BC
:1030E0006F2DCE0101960E94F01711246F2D60956F
:1030F000669F612D11248B81860F8B838A81860FB9
:103100008A838981860F89835C815F3FC9F0F12CB6
:103110002F2D552321F0559F212D09F02F5FF22EE1
:10312000622FCE0103960E94F0176F2DCE010296FA
:103130000E94F0176F2DCE0101960E94F017112406
:103140008B81F80180838A818183898182830F90BA
:103150000F900F900F90DF91CF911F910F91FF90E3
:1031600008951F920F920FB60F9211242F933F9341
:103170008F939F93AF93BF938091D6039091D70382
:10318000A091D803B091D9033091D50323E0230F48
:103190002D3720F40196A11DB11D05C026E8230F8F
:1031A0000296A11DB11D2093D5038093D603909361
:1031B000D703A093D803B093D9038091DA039091F9
:1031C000DB03A091DC03B091DD030196A11DB11DCD
:1031D0008093DA039093DB03A093DC03B093DD03C9
:1031E000BF91AF919F918F913F912F910F900FBE03
:1031F0000F901F9018952FB7F8946091D603709197
:10320000D7038091D8039091D9032FBF08953FB77A
:10321000F8948091DA039091DB03A091DC03B091E4
:10322000DD0326B5A89B05C02F3F19F00196A11D0F
:10323000B11D3FBF6627782F892F9A2F620F711D0E
:10324000811D911D42E0660F771F881F991F4A95C7
:10325000D1F70895CF92DF92EF92FF92CF93DF9351
:103260006B017C010E940719EB01C114D104E10438
:10327000F10489F00E94381B0E9407196C1B7D0B1A
:10328000683E734090F381E0C81AD108E108F10864
:10329000C851DC4FEACFDF91CF91FF90EF90DF90E4
:1032A000CF9008958230910538F0880F991F880FCC
:1032B000991F05970197F1F70895789484B5826076
:1032C00084BD84B5816084BD85B5826085BD85B5CA
:1032D000816085BDEEE6F0E0808181608083E1E879
:1032E000F0E01082808182608083808181608083B1
:1032F000E0E8F0E0808181608083E1EBF0E08081B4
:1033000084608083E0EBF0E0808181608083EAE785
:10331000F0E080818460808380818260808380810E
:10332000816080838081806880831092C1000895CD
:103330008E3008F08E50877020910D0190E4299F07
:1033400090011124822B80937C0080917A0080640C
:1033500080937A0080917A0086FDFCCF809178007E
:103360002091790090E0922B0895833081F028F429
:10337000813099F08230A1F008958730A9F088302B
:10338000B9F08430D1F4809180008F7D03C08091AA
:1033900080008F7780938000089584B58F7702C076
:1033A00084B58F7D84BD08958091B0008F7703C070
:1033B0008091B0008F7D8093B0000895CF93DF930C
:1033C00090E0FC01ED5DFE4F2491FC01E95CFE4FB5
:1033D0008491882349F190E0880F991FFC01EB5AF2
:1033E000FE4FA591B491855B9E4FFC01C591D49190
:1033F0009FB7611108C0F8948C91209582238C931B
:10340000888182230AC0623051F4F8948C91322F63
:10341000309583238C938881822B888304C0F89411
:103420008C91822B8C939FBFDF91CF9108950F9346
:103430001F93CF93DF931F92CDB7DEB7282F30E0D5
:10344000F901E15FFE4F8491F901ED5DFE4F1491AA
:10345000F901E95CFE4F04910023C9F0882321F0B3
:1034600069830E94B5196981E02FF0E0EE0FFF1F1C
:10347000E55BFE4FA591B4919FB7F8948C916111D3
:1034800003C01095812301C0812B8C939FBF0F90A7
:10349000DF91CF911F910F91089508950E945D19BA
:1034A0000E944D1A0E947009C0E0D0E00E94DE0C1C
:1034B0002097E1F30E940000F9CF0C94341F0C9484
:1034C000CC1FCF92DF92EF92FF920F931F93CF9377
:1034D000DF936C017A01EB01E60EF71E00E010E0CD
:1034E000CE15DF0561F06991D601ED91FC91019057
:1034F000F081E02DC6010995080F191FF1CFC80111
:10350000DF91CF911F910F91FF90EF90DF90CF90BF
:1035100008956115710581F0DB010D900020E9F738
:10352000AD0141505109461B570BDC01ED91FC9157
:103530000280F381E02D099480E090E00895EF92FD
:10354000FF920F931F93CF93DF938C01FB01C0E099
:10355000D0E064917F018FEFE81AF80A662361F0EA
:10356000D801ED91FC910190F081E02DC801099501
:10357000C80FD91FF701EDCFCE01DF91CF911F9179
:103580000F91FF90EF9008958F929F92AF92BF920C
:10359000CF92DF92EF92FF920F931F93CF93DF931F
:1035A000CDB7DEB7A1970FB6F894DEBF0FBECDBF83
:1035B0007C01C42EE52FCB01D22E19A221E02D15BE
:1035C00010F02AE0D22E8E010F5D1F4F8D2C912C12
:1035D000A12CB12C6C2D7E2FA50194010E94CC1E34
:1035E0008C2DD29E80191124015011098A3014F4B7
:1035F000805D01C0895CF80180832115310541059A
:10360000510521F0C22EE32FCA01E4CFB801C70152
:103610000E94891AA1960FB6F894DEBF0FBECDBFE7
:10362000DF91CF911F910F91FF90EF90DF90CF909E
:10363000BF90AF909F908F9008952115310541F470
:10364000DC01ED91FC910190F081E02D642F099453
:103650000C94C41A9A01AB0160E070E00C941D1B3D
:10366000611571058105910511F00C94AF20089545
:1036700008955058BB27AA270ED048C139D130F041
:103680003ED120F031F49F3F11F41EF42EC10EF410
:10369000E095E7FB24C1E92F4AD180F3BA1762070E
:1036A00073078407950718F071F49EF562C10EF454
:1036B000E0950B2EBA2FA02D0B01B90190010C0142
:1036C000CA01A0011124FF27591B99F0593F50F45A
:1036D000503E68F11A16F040A22F232F342F4427B2
:1036E000585FF3CF469537952795A795F0405395AA
:1036F000C9F77EF41F16BA0B620B730B840BBAF07A
:103700009150A1F0FF0FBB1F661F771F881FC2F7E4
:103710000EC0BA0F621F731F841F48F487957795F8
:103720006795B795F7959E3F08F0B3CF9395880FAF
:1037300008F09927EE0F9795879508950CD0E6C06D
:10374000DED040F0D5D030F021F45F3F19F0C7C093
:10375000511110C1CAC0EBD098F39923C9F3552376
:10376000B1F3951B550BBB27AA2762177307840774
:1037700038F09F5F5F4F220F331F441FAA1FA9F32A
:1037800033D00E2E3AF0E0E830D091505040E6951C
:10379000001CCAF729D0FE2F27D0660F771F881F7D
:1037A000BB1F261737074807AB07B0E809F0BB0B6C
:1037B000802DBF01FF2793585F4F2AF09E3F510590
:1037C00068F08DC0D7C05F3FECF3983EDCF3869580
:1037D00077956795B795F7959F5FC9F7880F911D06
:1037E0009695879597F90895E1E0660F771F881FF2
:1037F000BB1F621773078407BA0720F0621B730BA5
:10380000840BBA0BEE1F88F7E095089598D088F0E6
:103810009F5790F0B92F9927B751A0F0D1F0660FBC
:10382000771F881F991F1AF0BA95C9F712C0B130D7
:1038300081F09FD0B1E008959CC0672F782F882732
:10384000B85F39F0B93FCCF3869577956795B39516
:10385000D9F73EF490958095709561957F4F8F4F85
:103860009F4F0895E89409C097FB3EF4909580958A
:10387000709561957F4F8F4F9F4F9923A9F0F92F36
:1038800096E9BB279395F695879577956795B795B4
:10389000F111F8CFFAF4BB0F11F460FF1BC06F5F9A
:1038A0007F4F8F4F9F4F16C0882311F096E911C0AC
:1038B000772321F09EE8872F762F05C0662371F0CD
:1038C00096E8862F70E060E02AF09A95660F771FE1
:1038D000881FDAF7880F9695879597F9089597F9D5
:1038E0009F6780E870E060E008959FEF80EC0895A6
:1038F00000240A94161617061806090608950024CF
:103900000A9412161306140605060895092E039448
:10391000000C11F4882352F0BB0F40F4BF2B11F4BC
:1039200060FF04C06F5F7F4F8F4F9F4F089557FD1B
:103930009058440F551F59F05F3F71F04795880F1D
:1039400097FB991F61F09F3F79F0879508951216B4
:1039500013061406551FF2CF4695F1DF08C0161660
:1039600017061806991FF1CF869571056105089411
:103970000895E894BB2766277727CB0197F9089528
:103980000BD0C4CFB5DF28F0BADF18F0952309F0CB
:10399000A6CFABCF1124EECFCADFA0F3959FD1F312
:1039A000950F50E0551F629FF001729FBB27F00DED
:1039B000B11D639FAA27F00DB11DAA1F649F662742
:1039C000B00DA11D661F829F2227B00DA11D621F91
:1039D000739FB00DA11D621F839FA00D611D221F4B
:1039E000749F3327A00D611D231F849F600D211D2F
:1039F000822F762F6A2F11249F5750408AF0E1F0D2
:103A000088234AF0EE0FFF1FBB1F661F771F881F1A
:103A100091505040A9F79E3F510570F060CFAACF5A
:103A20005F3FECF3983EDCF3869577956795B79505
:103A3000F795E7959F5FC1F7FE2B880F911D96952F
:103A4000879597F90895FA01EE0FFF1F309621052B
:103A5000310599F16115710561F48038BFE39B0769
:103A600049F168949038810561F08038BFEF9B0779
:103A700041F0992342F5FF3FE1053105210511F1A0
:103A8000E8940894E795D901AA2329F4AB2FBE2F17
:103A9000F85FD0F310C0FF5F70F4A695E0F7F73938
:103AA00050F019F0FF3A38F49F779F930CD00F90A5
:103AB00007FC905808953EF018CF60E070E080E871
:103AC0009FE308954FE79F775F934F933F932F9323
:103AD0009ED02F913F914F915F9152DF05C019F415
:103AE0000EF0FDCE46CF01CF2ADFC8F39638C0F7DF
:103AF00007F80F92E8942BE33AEA48EB5FE74EDFD2
:103B00000F920F920F924DB75EB70F92C0D0E0E8C0
:103B1000F0E016D04F915F91EF91FF91E595EE1F88
:103B2000FF1F49F0FE57E0684427EE0F441FFA9547
:103B3000E1F74195550B32D00F9007FE26C008954E
:103B4000DF93CF931F930F93FF92EF92DF927B014E
:103B50008C01689405C0DA2EEF011EDFFE01E894A7
:103B6000A5912591359145915591AEF3EF0193DDE6
:103B7000FE019701A801DA9479F7DF90EF90FF90AA
:103B80000F911F91CF91DF9108959B01AC0160E0EF
:103B900070E080E89FE3D2CDA2CEACC0D0DEE8F3E7
:103BA0009923D9F3940F511DBBF39150504094F0D9
:103BB00059F0882332F0660F771F881F91505040CC
:103BC000C1F79E3F510544F7880F911D9695879543
:103BD00097F908955F3FACF0983E9CF0BB2786951F
:103BE00077956795B79508F4B1609395C1F7BB0FCA
:103BF00058F711F460FFE8CF6F5F7F4F8F4F9F4FF3
:103C0000E3CFB8CE0EF076C070CE689468CE97DE63
:103C1000C8F39923D1F3C6F3DF93CF931F930F9388
:103C2000FF92C92FDD2788232AF02197660F771F7F
:103C3000881FDAF720E030E040E85FEB9FE3883947
:103C400020F0803E30F021968F7714DDE8EAF0E036
:103C500003C010DDE5EDF0E073DF8B01BE01EC0188
:103C6000FB2E6F5771097595771F880B990BFCDD3B
:103C700028E132E741E35FE38FDEAF2D9801AE012B
:103C8000FF900F911F91CF91DF9105DD3FCEFA019B
:103C9000DC01AA0FBB1F9B01AC01BF5728F42227F0
:103CA0003327442750781FC0B75188F4AB2F002426
:103CB000469537952795011CA395D2F3002069F00E
:103CC000220F331F441FB395DAF30DD0D2CC6130ED
:103CD0007105A0E88A07B94630F49B01AC0166275C
:103CE000772788279078309621F02083318342838C
:103CF000538308959F3F31F0915020F48795779535
:103D00006795B795880F911D9695879597F90895B2
:103D1000DB018F939F930E94291FBF91AF91A29FB8
:103D2000800D911DA39F900DB29F900D11240895B9
:103D3000991B79E004C0991F961708F0961B881FFD
:103D40007A95C9F780950895AA1BBB1B51E107C05E
:103D5000AA1FBB1FA617B70710F0A61BB70B881F1B
:103D6000991F5A95A9F780959095BC01CD010895AA
:103D700097FB072E16F4009407D077FD09D00E9418
:103D8000A41E07FC05D03EF4909581959F4F0895A1
:103D9000709561957F4F0895A1E21A2EAA1BBB1B57
:103DA000FD010DC0AA1FBB1FEE1FFF1FA217B30707
:103DB000E407F50720F0A21BB30BE40BF50B661F1D
:103DC000771F881F991F1A9469F7609570958095E1
:103DD00090959B01AC01BD01CF010895052E97FB85
:103DE0001EF400940E94051F57FD07D00E94CC1EB0
:103DF00007FC03D04EF40C94051F50954095309568
:103E000021953F4F4F4F5F4F089590958095709546
:103E100061957F4F8F4F9F4F0895EE0FFF1F0590C5
:103E2000F491E02D0994A29FB001B39FC001A39F1C
:103E3000700D811D1124911DB29F700D811D1124E3
:103E4000911D08950E94131FB7FF0895821B930BC5
:103E500008950E94131FA59F900DB49F900DA49FDD
:103E6000800D911D11240895CF93DF938230910529
:103E700010F482E090E0E091E003F091E10320E0B3
:103E800030E0A0E0B0E0309739F14081518148172F
:103E90005907B8F04817590771F482819381109738
:103EA00029F013969C938E9312972CC09093E10364
:103EB0008093E00327C02115310531F042175307E5
:103EC00018F0A901DB0101C0EF019A01BD01DF017A
:103ED0000280F381E02DD7CF21153105F9F0281BA1
:103EE000390B2430310580F48A819B81611571057D
:103EF00021F0FB019383828304C09093E1038093BC
:103F0000E003FE01329644C0FE01E20FF31F8193ED
:103F1000919322503109398328833AC02091DE03DE
:103F20003091DF03232B41F42091020130910301F2
:103F30003093DF032093DE032091000130910101D3
:103F40002115310541F42DB73EB740910401509140
:103F50000501241B350BE091DE03F091DF03E2172E
:103F6000F307A0F42E1B3F0B2817390778F0AC019C
:103F70004E5F5F4F2417350748F04E0F5F1F509379
:103F8000DF034093DE038193919302C0E0E0F0E011
:103F9000CF01DF91CF910895CF93DF93009709F47C
:103FA00087C0FC01329713821282C091E003D09146
:103FB000E103209781F420813181280F391F8091FE
:103FC000DE039091DF038217930779F5F093DF0307
:103FD000E093DE036DC0DE0120E030E0AE17BF07E6
:103FE00050F412964D915C9113979D014115510526
:103FF00009F1DA01F3CFB383A28340815181840FA9
:10400000951F8A179B0771F48D919C911197840FCE
:10401000951F02969183808312968D919C911397A0
:10402000938382832115310529F4F093E103E09312
:10403000E0033EC0D9011396FC93EE9312974D9185
:104040005D91A40FB51FEA17FB0779F48081918178
:10405000840F951F0296D90111969C938E938281AD
:10406000938113969C938E931297E0E0F0E08A81FF
:104070009B81009719F0FE01EC01F9CFCE01029669
:1040800028813981820F931F2091DE033091DF0355
:104090002817390769F4309729F41092E103109238
:1040A000E00302C013821282D093DF03C093DE03C9
:1040B000DF91CF9108958F929F92AF92BF92CF924E
:1040C000DF92EF92FF92CF93DF93EC0168817981C9
:1040D0008A819B81611571058105910521F464E256
:1040E00079ED8BE597E02DE133EF41E050E00E9460
:1040F000EE1E49015A019B01AC01A7EAB1E40E94FE
:10410000291F6B017C01ACEEB4EFA50194010E9464
:10411000BB20C60ED71EE81EF91EF7FE06C081E0C2
:10412000C81AD108E10880E8F80AC882D982EA8270
:10413000FB82C701B6019F77DF91CF91FF90EF908F
:10414000DF90CF90BF90AF909F908F9008950E9486
:104150005B20089586E091E00E945B2008956093C3
:104160000601709307018093080190930901089557
:10417000B7FF0C94291F0E94291F821B930B0895DF
:04418000F894FFCFE1
:104184000000E203800001000000FF390501000087
:104194000000480200000000440100000000FD008F
:1041A40000000000A204F703F10300000000D304A0
:1041B4001A04ED030000000005053C04ED030000B3
:1041C400000096055E04ED0300000000C9058004AC
:1041D400ED0300000000D80FE40F6E09F00F6B0927
:1041E400000000003B12611A0000000099126C12DA
:0841F400411249125C126B122A
:00000001FF
